{
  "_format": "hh-sol-artifact-1",
  "contractName": "Vault",
  "sourceName": "contracts/Vault.sol",
  "abi": [
    {
      "inputs": [
        {
          "internalType": "address",
          "name": "target",
          "type": "address"
        }
      ],
      "name": "AddressEmptyCode",
      "type": "error"
    },
    {
      "inputs": [
        {
          "internalType": "address",
          "name": "implementation",
          "type": "address"
        }
      ],
      "name": "ERC1967InvalidImplementation",
      "type": "error"
    },
    {
      "inputs": [],
      "name": "ERC1967NonPayable",
      "type": "error"
    },
    {
      "inputs": [],
      "name": "EnforcedPause",
      "type": "error"
    },
    {
      "inputs": [],
      "name": "ExpectedPause",
      "type": "error"
    },
    {
      "inputs": [],
      "name": "FailedInnerCall",
      "type": "error"
    },
    {
      "inputs": [],
      "name": "InvalidInitialization",
      "type": "error"
    },
    {
      "inputs": [],
      "name": "NotInitializing",
      "type": "error"
    },
    {
      "inputs": [
        {
          "internalType": "address",
          "name": "owner",
          "type": "address"
        }
      ],
      "name": "OwnableInvalidOwner",
      "type": "error"
    },
    {
      "inputs": [
        {
          "internalType": "address",
          "name": "account",
          "type": "address"
        }
      ],
      "name": "OwnableUnauthorizedAccount",
      "type": "error"
    },
    {
      "inputs": [],
      "name": "ReentrancyGuardReentrantCall",
      "type": "error"
    },
    {
      "inputs": [],
      "name": "UUPSUnauthorizedCallContext",
      "type": "error"
    },
    {
      "inputs": [
        {
          "internalType": "bytes32",
          "name": "slot",
          "type": "bytes32"
        }
      ],
      "name": "UUPSUnsupportedProxiableUUID",
      "type": "error"
    },
    {
      "anonymous": false,
      "inputs": [
        {
          "indexed": true,
          "internalType": "address",
          "name": "user",
          "type": "address"
        },
        {
          "indexed": false,
          "internalType": "uint256",
          "name": "beforeAmount",
          "type": "uint256"
        },
        {
          "indexed": false,
          "internalType": "uint256",
          "name": "afterAmount",
          "type": "uint256"
        },
        {
          "indexed": false,
          "internalType": "uint256",
          "name": "amount",
          "type": "uint256"
        },
        {
          "indexed": false,
          "internalType": "uint256",
          "name": "timestamp",
          "type": "uint256"
        }
      ],
      "name": "ClaimBNB",
      "type": "event"
    },
    {
      "anonymous": false,
      "inputs": [
        {
          "indexed": true,
          "internalType": "address",
          "name": "user",
          "type": "address"
        },
        {
          "indexed": false,
          "internalType": "uint256",
          "name": "beforeAmount",
          "type": "uint256"
        },
        {
          "indexed": false,
          "internalType": "uint256",
          "name": "afterAmount",
          "type": "uint256"
        },
        {
          "indexed": false,
          "internalType": "uint256",
          "name": "amount",
          "type": "uint256"
        },
        {
          "indexed": false,
          "internalType": "uint256",
          "name": "timestamp",
          "type": "uint256"
        }
      ],
      "name": "ClaimMG8",
      "type": "event"
    },
    {
      "anonymous": false,
      "inputs": [
        {
          "indexed": false,
          "internalType": "uint64",
          "name": "version",
          "type": "uint64"
        }
      ],
      "name": "Initialized",
      "type": "event"
    },
    {
      "anonymous": false,
      "inputs": [
        {
          "indexed": true,
          "internalType": "address",
          "name": "previousOwner",
          "type": "address"
        },
        {
          "indexed": true,
          "internalType": "address",
          "name": "newOwner",
          "type": "address"
        }
      ],
      "name": "OwnershipTransferred",
      "type": "event"
    },
    {
      "anonymous": false,
      "inputs": [
        {
          "indexed": false,
          "internalType": "address",
          "name": "account",
          "type": "address"
        }
      ],
      "name": "Paused",
      "type": "event"
    },
    {
      "anonymous": false,
      "inputs": [
        {
          "indexed": false,
          "internalType": "address",
          "name": "account",
          "type": "address"
        }
      ],
      "name": "Unpaused",
      "type": "event"
    },
    {
      "anonymous": false,
      "inputs": [
        {
          "indexed": true,
          "internalType": "address",
          "name": "implementation",
          "type": "address"
        }
      ],
      "name": "Upgraded",
      "type": "event"
    },
    {
      "inputs": [],
      "name": "MG8",
      "outputs": [
        {
          "internalType": "contract IERC20",
          "name": "",
          "type": "address"
        }
      ],
      "stateMutability": "view",
      "type": "function"
    },
    {
      "inputs": [],
      "name": "UPGRADE_INTERFACE_VERSION",
      "outputs": [
        {
          "internalType": "string",
          "name": "",
          "type": "string"
        }
      ],
      "stateMutability": "view",
      "type": "function"
    },
    {
      "inputs": [
        {
          "internalType": "address",
          "name": "assetAddr",
          "type": "address"
        },
        {
          "internalType": "address",
          "name": "_user",
          "type": "address"
        },
        {
          "internalType": "uint256",
          "name": "_amount",
          "type": "uint256"
        }
      ],
      "name": "claimAirdrop",
      "outputs": [],
      "stateMutability": "nonpayable",
      "type": "function"
    },
    {
      "inputs": [
        {
          "internalType": "uint256",
          "name": "amount",
          "type": "uint256"
        }
      ],
      "name": "claimBNB",
      "outputs": [],
      "stateMutability": "payable",
      "type": "function"
    },
    {
      "inputs": [
        {
          "internalType": "uint256",
          "name": "amount",
          "type": "uint256"
        }
      ],
      "name": "claimMG8",
      "outputs": [],
      "stateMutability": "nonpayable",
      "type": "function"
    },
    {
      "inputs": [
        {
          "internalType": "address",
          "name": "user",
          "type": "address"
        }
      ],
      "name": "claimableAmount",
      "outputs": [
        {
          "internalType": "uint256",
          "name": "_bnbAmount",
          "type": "uint256"
        },
        {
          "internalType": "uint256",
          "name": "_mg8Amount",
          "type": "uint256"
        }
      ],
      "stateMutability": "view",
      "type": "function"
    },
    {
      "inputs": [
        {
          "internalType": "uint256",
          "name": "amount",
          "type": "uint256"
        }
      ],
      "name": "convertPointToMG8",
      "outputs": [
        {
          "internalType": "uint256",
          "name": "",
          "type": "uint256"
        }
      ],
      "stateMutability": "view",
      "type": "function"
    },
    {
      "inputs": [],
      "name": "convertPointToMG8Ratio",
      "outputs": [
        {
          "internalType": "uint256",
          "name": "",
          "type": "uint256"
        }
      ],
      "stateMutability": "view",
      "type": "function"
    },
    {
      "inputs": [
        {
          "internalType": "address",
          "name": "user",
          "type": "address"
        },
        {
          "internalType": "uint256",
          "name": "amount",
          "type": "uint256"
        }
      ],
      "name": "decreaseBNB",
      "outputs": [],
      "stateMutability": "nonpayable",
      "type": "function"
    },
    {
      "inputs": [
        {
          "internalType": "address",
          "name": "user",
          "type": "address"
        },
        {
          "internalType": "uint256",
          "name": "amount",
          "type": "uint256"
        }
      ],
      "name": "decreaseMG8",
      "outputs": [],
      "stateMutability": "nonpayable",
      "type": "function"
    },
    {
      "inputs": [],
      "name": "distributeAll",
      "outputs": [],
      "stateMutability": "nonpayable",
      "type": "function"
    },
    {
      "inputs": [
        {
          "internalType": "address",
          "name": "user",
          "type": "address"
        },
        {
          "internalType": "uint256",
          "name": "amount",
          "type": "uint256"
        }
      ],
      "name": "dropBNB",
      "outputs": [],
      "stateMutability": "payable",
      "type": "function"
    },
    {
      "inputs": [
        {
          "internalType": "address",
          "name": "user",
          "type": "address"
        },
        {
          "internalType": "uint256",
          "name": "amount",
          "type": "uint256"
        }
      ],
      "name": "dropMG8",
      "outputs": [],
      "stateMutability": "nonpayable",
      "type": "function"
    },
    {
      "inputs": [
        {
          "internalType": "address",
          "name": "user",
          "type": "address"
        },
        {
          "internalType": "uint256",
          "name": "amount",
          "type": "uint256"
        }
      ],
      "name": "increaseBNB",
      "outputs": [],
      "stateMutability": "nonpayable",
      "type": "function"
    },
    {
      "inputs": [
        {
          "internalType": "address",
          "name": "user",
          "type": "address"
        },
        {
          "internalType": "uint256",
          "name": "amount",
          "type": "uint256"
        }
      ],
      "name": "increaseMG8",
      "outputs": [],
      "stateMutability": "nonpayable",
      "type": "function"
    },
    {
      "inputs": [
        {
          "internalType": "uint256",
          "name": "_convertPointToMG8Ratio",
          "type": "uint256"
        },
        {
          "internalType": "uint256",
          "name": "_minClaimAmount",
          "type": "uint256"
        },
        {
          "internalType": "uint256",
          "name": "_maxClaimAmount",
          "type": "uint256"
        },
        {
          "internalType": "address",
          "name": "initialOwner",
          "type": "address"
        },
        {
          "internalType": "address",
          "name": "mg8",
          "type": "address"
        },
        {
          "internalType": "bool",
          "name": "_paused",
          "type": "bool"
        }
      ],
      "name": "initialize",
      "outputs": [],
      "stateMutability": "nonpayable",
      "type": "function"
    },
    {
      "inputs": [],
      "name": "maxClaimAmount",
      "outputs": [
        {
          "internalType": "uint256",
          "name": "",
          "type": "uint256"
        }
      ],
      "stateMutability": "view",
      "type": "function"
    },
    {
      "inputs": [
        {
          "internalType": "address",
          "name": "",
          "type": "address"
        }
      ],
      "name": "maxClaimAmountForAsset",
      "outputs": [
        {
          "internalType": "uint256",
          "name": "",
          "type": "uint256"
        }
      ],
      "stateMutability": "view",
      "type": "function"
    },
    {
      "inputs": [
        {
          "internalType": "address",
          "name": "",
          "type": "address"
        }
      ],
      "name": "minAssetAmountForAirdrop",
      "outputs": [
        {
          "internalType": "uint256",
          "name": "",
          "type": "uint256"
        }
      ],
      "stateMutability": "view",
      "type": "function"
    },
    {
      "inputs": [],
      "name": "minClaimAmount",
      "outputs": [
        {
          "internalType": "uint256",
          "name": "",
          "type": "uint256"
        }
      ],
      "stateMutability": "view",
      "type": "function"
    },
    {
      "inputs": [],
      "name": "owner",
      "outputs": [
        {
          "internalType": "address",
          "name": "",
          "type": "address"
        }
      ],
      "stateMutability": "view",
      "type": "function"
    },
    {
      "inputs": [
        {
          "internalType": "address",
          "name": "",
          "type": "address"
        }
      ],
      "name": "partnerContract",
      "outputs": [
        {
          "internalType": "bool",
          "name": "",
          "type": "bool"
        }
      ],
      "stateMutability": "view",
      "type": "function"
    },
    {
      "inputs": [],
      "name": "pause",
      "outputs": [],
      "stateMutability": "nonpayable",
      "type": "function"
    },
    {
      "inputs": [],
      "name": "paused",
      "outputs": [
        {
          "internalType": "bool",
          "name": "",
          "type": "bool"
        }
      ],
      "stateMutability": "view",
      "type": "function"
    },
    {
      "inputs": [],
      "name": "proxiableUUID",
      "outputs": [
        {
          "internalType": "bytes32",
          "name": "",
          "type": "bytes32"
        }
      ],
      "stateMutability": "view",
      "type": "function"
    },
    {
      "inputs": [
        {
          "internalType": "address",
          "name": "_contract",
          "type": "address"
        },
        {
          "internalType": "uint256",
          "name": "_minAmount",
          "type": "uint256"
        },
        {
          "internalType": "uint256",
          "name": "_maxClaimAmount",
          "type": "uint256"
        }
      ],
      "name": "registerContract",
      "outputs": [],
      "stateMutability": "nonpayable",
      "type": "function"
    },
    {
      "inputs": [],
      "name": "renounceOwnership",
      "outputs": [],
      "stateMutability": "nonpayable",
      "type": "function"
    },
    {
      "inputs": [
        {
          "internalType": "uint256",
          "name": "_maxClaimAmount",
          "type": "uint256"
        }
      ],
      "name": "setMaxClaimAmount",
      "outputs": [],
      "stateMutability": "nonpayable",
      "type": "function"
    },
    {
      "inputs": [
        {
          "internalType": "address",
          "name": "_contract",
          "type": "address"
        },
        {
          "internalType": "uint256",
          "name": "_maxAmount",
          "type": "uint256"
        }
      ],
      "name": "setMaxClaimAmountForAsset",
      "outputs": [],
      "stateMutability": "nonpayable",
      "type": "function"
    },
    {
      "inputs": [
        {
          "internalType": "address",
          "name": "_contract",
          "type": "address"
        },
        {
          "internalType": "uint256",
          "name": "_minAmount",
          "type": "uint256"
        }
      ],
      "name": "setMinAmountForPartner",
      "outputs": [],
      "stateMutability": "nonpayable",
      "type": "function"
    },
    {
      "inputs": [
        {
          "internalType": "uint256",
          "name": "_minClaimAmount",
          "type": "uint256"
        }
      ],
      "name": "setMinClaimAmount",
      "outputs": [],
      "stateMutability": "nonpayable",
      "type": "function"
    },
    {
      "inputs": [
        {
          "internalType": "uint256",
          "name": "_ratio",
          "type": "uint256"
        }
      ],
      "name": "setRatio",
      "outputs": [],
      "stateMutability": "nonpayable",
      "type": "function"
    },
    {
      "inputs": [
        {
          "internalType": "address",
          "name": "newOwner",
          "type": "address"
        }
      ],
      "name": "transferOwnership",
      "outputs": [],
      "stateMutability": "nonpayable",
      "type": "function"
    },
    {
      "inputs": [],
      "name": "unpause",
      "outputs": [],
      "stateMutability": "nonpayable",
      "type": "function"
    },
    {
      "inputs": [
        {
          "internalType": "address",
          "name": "_contract",
          "type": "address"
        }
      ],
      "name": "unregisterContract",
      "outputs": [],
      "stateMutability": "nonpayable",
      "type": "function"
    },
    {
      "inputs": [
        {
          "internalType": "address",
          "name": "newImplementation",
          "type": "address"
        },
        {
          "internalType": "bytes",
          "name": "data",
          "type": "bytes"
        }
      ],
      "name": "upgradeToAndCall",
      "outputs": [],
      "stateMutability": "payable",
      "type": "function"
    },
    {
      "stateMutability": "payable",
      "type": "receive"
    }
  ],
  "bytecode": "0x60a06040523060805234801561001457600080fd5b5060805161225461003e6000396000818161183e0152818161186701526119a801526122546000f3fe6080604052600436106102135760003560e01c80638456cb5911610118578063bd6e5cca116100a0578063d60693f11161006f578063d60693f11461063b578063f13969311461065b578063f2fde38b1461067b578063fac2c6211461069b578063fcd2c808146106bb57600080fd5b8063bd6e5cca146105b8578063be8edbcd146105d8578063ce37d57614610605578063d21446801461061b57600080fd5b8063a0088908116100e7578063a008890814610501578063ad3cb1cc1461052e578063adc25bde1461056c578063aeef643914610582578063b2237ba31461059857600080fd5b80638456cb5914610446578063898850491461045b5780638da5cb5b14610490578063922fc248146104e157600080fd5b80634f60c94b1161019b5780637376f7381161016a5780637376f738146103a657806373ac21a4146103c65780637b352f8e146103e65780637d88eb281461040657806382190feb1461042657600080fd5b80634f60c94b1461032957806352d1902d146103495780635c975abb1461036c578063715018a61461039157600080fd5b80633f4ba83a116101e25780633f4ba83a146102b957806341b9189a146102ce578063436596c4146102ee57806348bb44bd146103035780634f1ef2861461031657600080fd5b806303dcfe6a1461021f5780630e5c1d0a1461024157806325a394881461025457806325cc6ebc1461029957600080fd5b3661021a57005b600080fd5b34801561022b57600080fd5b5061023f61023a366004611d03565b6106db565b005b61023f61024f366004611d66565b610840565b34801561026057600080fd5b5061028461026f366004611d7f565b60066020526000908152604090205460ff1681565b60405190151581526020015b60405180910390f35b3480156102a557600080fd5b5061023f6102b4366004611d66565b610a11565b3480156102c557600080fd5b5061023f610c57565b3480156102da57600080fd5b5061023f6102e9366004611d9a565b610c69565b3480156102fa57600080fd5b5061023f610cd8565b61023f610311366004611d9a565b610e39565b61023f610324366004611dda565b610ea9565b34801561033557600080fd5b5061023f610344366004611e9c565b610ec4565b34801561035557600080fd5b5061035e611100565b604051908152602001610290565b34801561037857600080fd5b506000805160206121ff8339815191525460ff16610284565b34801561039d57600080fd5b5061023f61111d565b3480156103b257600080fd5b5061023f6103c1366004611d9a565b61112f565b3480156103d257600080fd5b5061023f6103e1366004611d9a565b6111b3565b3480156103f257600080fd5b5061023f610401366004611d66565b61121e565b34801561041257600080fd5b5061035e610421366004611d66565b61123b565b34801561043257600080fd5b5061023f610441366004611d9a565b61125c565b34801561045257600080fd5b5061023f6112d2565b34801561046757600080fd5b5061047b610476366004611d7f565b6112e2565b60408051928352602083019190915201610290565b34801561049c57600080fd5b507f9016d09d72d40fdae2fd8ceac6b6234c7706214fd39c1cd1e609a0528c199300546001600160a01b03165b6040516001600160a01b039091168152602001610290565b3480156104ed57600080fd5b5061023f6104fc366004611d66565b61131b565b34801561050d57600080fd5b5061035e61051c366004611d7f565b60076020526000908152604090205481565b34801561053a57600080fd5b5061055f604051806040016040528060058152602001640352e302e360dc1b81525081565b6040516102909190611efc565b34801561057857600080fd5b5061035e60025481565b34801561058e57600080fd5b5061035e60035481565b3480156105a457600080fd5b5061023f6105b3366004611d66565b611338565b3480156105c457600080fd5b5061023f6105d3366004611d9a565b611355565b3480156105e457600080fd5b5061035e6105f3366004611d7f565b60086020526000908152604090205481565b34801561061157600080fd5b5061035e60015481565b34801561062757600080fd5b5061023f610636366004611d9a565b611466565b34801561064757600080fd5b506000546104c9906001600160a01b031681565b34801561066757600080fd5b5061023f610676366004611d9a565b61149e565b34801561068757600080fd5b5061023f610696366004611d7f565b6114d6565b3480156106a757600080fd5b5061023f6106b6366004611d7f565b611511565b3480156106c757600080fd5b5061023f6106d6366004611f2f565b61158c565b7ff0c57e16840df040f15088dc2f81fe391c3923bec73e23a9662efc9c229c6a008054600160401b810460ff16159067ffffffffffffffff166000811580156107215750825b905060008267ffffffffffffffff16600114801561073e5750303b155b90508115801561074c575080155b1561076a5760405163f92ee8a960e01b815260040160405180910390fd5b845467ffffffffffffffff19166001178555831561079457845460ff60401b1916600160401b1785555b61079c611655565b6107a461165d565b6107ad8861166d565b6107b561167e565b600080546001600160a01b0319166001600160a01b03891617905560018b9055600389905560028a905585156107ed576107ed61168e565b831561083357845460ff60401b19168555604051600181527fc7f505b2f371ae2175ee4913f4499e1f2633a7b5936321eed1cdaeb6115181d29060200160405180910390a15b5050505050505050505050565b6108486116f1565b61085061173b565b33600090815260056020526040902054819081158015906108715750600081115b6108965760405162461bcd60e51b815260040161088d90611f62565b60405180910390fd5b6002548210156108b85760405162461bcd60e51b815260040161088d90611fb5565b6003548211156108da5760405162461bcd60e51b815260040161088d90612013565b3330318411156108fc5760405162461bcd60e51b815260040161088d90612070565b6001600160a01b038116600090815260056020526040812080549186919061092483856120bd565b90915550506001600160a01b03821660008181526005602052604080822054600980546001810182559084527f6e1540171b6c0c960b71a7020d9f60077f6af931a8bbf590da0223dacf75c7af0180546001600160a01b03191685179055905190929188156108fc02918991818181858888f193505050501580156109ad573d6000803e3d6000fd5b5060408051838152602081018390529081018790524260608201526001600160a01b038416907f7b4611c10724430ce3ed305082cdc113ab29eb2a20f7ec76d88012c7b174a9fa906080015b60405180910390a25050505050610a0e61176c565b50565b610a196116f1565b610a2161173b565b610a2a8161123b565b336000908152600460205260409020548115801590610a495750600081115b610a655760405162461bcd60e51b815260040161088d90611f62565b600254821015610a875760405162461bcd60e51b815260040161088d90611fb5565b600354821115610aa95760405162461bcd60e51b815260040161088d90612013565b33610ab38461123b565b6000546040516370a0823160e01b81523060048201526001600160a01b03909116906370a0823190602401602060405180830381865afa158015610afb573d6000803e3d6000fd5b505050506040513d601f19601f82011682018060405250810190610b1f91906120d0565b1015610b3d5760405162461bcd60e51b815260040161088d90612070565b6001600160a01b0381166000908152600460205260408120805491869190610b6583856120bd565b90915550506001600160a01b03808316600090815260046020526040812054905490911663a9059cbb84610b988961123b565b6040516001600160e01b031960e085901b1681526001600160a01b03909216600483015260248201526044016020604051808303816000875af1158015610be3573d6000803e3d6000fd5b505050506040513d601f19601f82011682018060405250810190610c0791906120e9565b5060408051838152602081018390529081018790524260608201526001600160a01b038416907f0da10c80a8c6e5a5046c38a2c0e0a860014f88482b72c41e93704214b840c7c4906080016109f9565b610c5f611792565b610c676117ed565b565b610c71611792565b610c796116f1565b6001600160a01b03821660009081526006602052604090205460ff16610cb15760405162461bcd60e51b815260040161088d90612106565b6001600160a01b0382166000908152600760205260409020819055610cd461176c565b5050565b610ce0611792565b610ce86116f1565b60005b600954811015610e3057600060098281548110610d0a57610d0a612147565b60009182526020808320909101546001600160a01b031680835260058252604080842054600490935290922054919250908115610d87576001600160a01b0383166000818152600560205260408082208290555184156108fc0291859190818181858888f19350505050158015610d85573d6000803e3d6000fd5b505b8015610e1a576001600160a01b0383811660008181526004602081905260408083208390559154915163a9059cbb60e01b815290810192909252602482018490529091169063a9059cbb906044016020604051808303816000875af1158015610df4573d6000803e3d6000fd5b505050506040513d601f19601f82011682018060405250810190610e1891906120e9565b505b5050508080610e289061215d565b915050610ceb565b50610c6761176c565b610e41611792565b610e496116f1565b3031811115610e6a5760405162461bcd60e51b815260040161088d90612070565b6040516001600160a01b0383169082156108fc029083906000818181858888f19350505050158015610ea0573d6000803e3d6000fd5b50610cd461176c565b610eb1611833565b610eba826118d8565b610cd482826118e0565b610ecc6116f1565b6001600160a01b03831660009081526006602052604090205460ff16610f045760405162461bcd60e51b815260040161088d90612106565b6001600160a01b0383166000908152600860205260409020548110610f915760405162461bcd60e51b815260206004820152603c60248201527f5661756c743a20416d6f756e742073686f756c64206265206c6573732074686160448201527f6e206d617820636c61696d20616d6f756e7420666f7220617373657400000000606482015260840161088d565b6001600160a01b03838116600081815260076020526040908190205490516370a0823160e01b81529285166004840152916370a0823190602401602060405180830381865afa158015610fe8573d6000803e3d6000fd5b505050506040513d601f19601f8201168201806040525081019061100c91906120d0565b10156110685760405162461bcd60e51b815260206004820152602560248201527f5661756c743a20416d6f756e74206973206c657373207468616e206d696e20616044820152641b5bdd5b9d60da1b606482015260840161088d565b6000546001600160a01b031663a9059cbb836110838461123b565b6040516001600160e01b031960e085901b1681526001600160a01b03909216600483015260248201526044016020604051808303816000875af11580156110ce573d6000803e3d6000fd5b505050506040513d601f19601f820116820180604052508101906110f291906120e9565b506110fb61176c565b505050565b600061110a61199d565b506000805160206121df83398151915290565b611125611792565b610c6760006119e6565b611137611792565b61113f6116f1565b6001600160a01b03821660009081526005602052604090205481111561117d576001600160a01b0382166000908152600560205260408120556111ab565b6001600160a01b038216600090815260056020526040812080548392906111a59084906120bd565b90915550505b610cd461176c565b6111bb611792565b6111c36116f1565b6001600160a01b03821660009081526006602052604090205460ff166111fb5760405162461bcd60e51b815260040161088d90612106565b6001600160a01b0382166000908152600860205260409020819055610cd461176c565b611226611792565b61122e6116f1565b6003819055610a0e61176c565b6000606460015461124c9190612176565b6112569083612198565b92915050565b611264611792565b61126c6116f1565b6001600160a01b0382166000908152600460205260409020548111156112aa576001600160a01b0382166000908152600460205260408120556111ab565b6001600160a01b038216600090815260046020526040812080548392906111a59084906120bd565b6112da611792565b610c6761168e565b6001600160a01b03811660009081526005602090815260408083205460049092528220548291906113129061123b565b91509150915091565b611323611792565b61132b6116f1565b6002819055610a0e61176c565b611340611792565b6113486116f1565b6001819055610a0e61176c565b61135d611792565b6113656116f1565b6000546040516370a0823160e01b815230600482015282916001600160a01b0316906370a0823190602401602060405180830381865afa1580156113ad573d6000803e3d6000fd5b505050506040513d601f19601f820116820180604052508101906113d191906120d0565b10156113ef5760405162461bcd60e51b815260040161088d90612070565b60005460405163a9059cbb60e01b81526001600160a01b038481166004830152602482018490529091169063a9059cbb906044016020604051808303816000875af1158015611442573d6000803e3d6000fd5b505050506040513d601f19601f82011682018060405250810190610ea091906120e9565b61146e611792565b6114766116f1565b6001600160a01b038216600090815260056020526040812080548392906111a59084906121af565b6114a6611792565b6114ae6116f1565b6001600160a01b038216600090815260046020526040812080548392906111a59084906121af565b6114de611792565b6001600160a01b03811661150857604051631e4fbdf760e01b81526000600482015260240161088d565b610a0e816119e6565b611519611792565b6115216116f1565b6001600160a01b03811660009081526006602052604090205460ff166115595760405162461bcd60e51b815260040161088d90612106565b6001600160a01b0381166000908152600660209081526040808320805460ff191690556007909152812055610a0e61176c565b611594611792565b61159c6116f1565b6001600160a01b03831660009081526006602052604090205460ff16156116135760405162461bcd60e51b815260206004820152602560248201527f5661756c743a20436f6e747261637420697320616c72656164792072656769736044820152641d195c995960da1b606482015260840161088d565b6001600160a01b0383166000908152600660209081526040808320805460ff1916600117905560078252808320859055600890915290208190556110fb61176c565b610c67611a57565b611665611a57565b610c67611aa0565b611675611a57565b610a0e81611ac1565b611686611a57565b610c67611ac9565b61169661173b565b6000805160206121ff833981519152805460ff191660011781557f62e78cea01bee320cd4e420270b5ea74000d11b0c9f74754ebdbfc544b05a258335b6040516001600160a01b03909116815260200160405180910390a150565b7f9b779b17422d0df92223018b32b4d1fa46e071723d6817e2486d003becc55f0080546001190161173557604051633ee5aeb560e01b815260040160405180910390fd5b60029055565b6000805160206121ff8339815191525460ff1615610c675760405163d93c066560e01b815260040160405180910390fd5b60017f9b779b17422d0df92223018b32b4d1fa46e071723d6817e2486d003becc55f0055565b336117c47f9016d09d72d40fdae2fd8ceac6b6234c7706214fd39c1cd1e609a0528c199300546001600160a01b031690565b6001600160a01b031614610c675760405163118cdaa760e01b815233600482015260240161088d565b6117f5611ad1565b6000805160206121ff833981519152805460ff191681557f5db9ee0a495bf2e6ff9c91a7834c1ba4fdd244a5e8aa4e537bd38aeae4b073aa336116d3565b306001600160a01b037f00000000000000000000000000000000000000000000000000000000000000001614806118ba57507f00000000000000000000000000000000000000000000000000000000000000006001600160a01b03166118ae6000805160206121df833981519152546001600160a01b031690565b6001600160a01b031614155b15610c675760405163703e46dd60e11b815260040160405180910390fd5b610a0e611792565b816001600160a01b03166352d1902d6040518163ffffffff1660e01b8152600401602060405180830381865afa92505050801561193a575060408051601f3d908101601f19168201909252611937918101906120d0565b60015b61196257604051634c9c8ce360e01b81526001600160a01b038316600482015260240161088d565b6000805160206121df833981519152811461199357604051632a87526960e21b81526004810182905260240161088d565b6110fb8383611b01565b306001600160a01b037f00000000000000000000000000000000000000000000000000000000000000001614610c675760405163703e46dd60e11b815260040160405180910390fd5b7f9016d09d72d40fdae2fd8ceac6b6234c7706214fd39c1cd1e609a0528c19930080546001600160a01b031981166001600160a01b03848116918217845560405192169182907f8be0079c531659141344cd1fd0a4f28419497f9722a3daafe3b4186f6b6457e090600090a3505050565b7ff0c57e16840df040f15088dc2f81fe391c3923bec73e23a9662efc9c229c6a0054600160401b900460ff16610c6757604051631afcd79f60e31b815260040160405180910390fd5b611aa8611a57565b6000805160206121ff833981519152805460ff19169055565b6114de611a57565b61176c611a57565b6000805160206121ff8339815191525460ff16610c6757604051638dfc202b60e01b815260040160405180910390fd5b611b0a82611b57565b6040516001600160a01b038316907fbc7cd75a20ee27fd9adebab32041f755214dbc6bffa90cc0225b39da2e5c2d3b90600090a2805115611b4f576110fb8282611bbc565b610cd4611c32565b806001600160a01b03163b600003611b8d57604051634c9c8ce360e01b81526001600160a01b038216600482015260240161088d565b6000805160206121df83398151915280546001600160a01b0319166001600160a01b0392909216919091179055565b6060600080846001600160a01b031684604051611bd991906121c2565b600060405180830381855af49150503d8060008114611c14576040519150601f19603f3d011682016040523d82523d6000602084013e611c19565b606091505b5091509150611c29858383611c51565b95945050505050565b3415610c675760405163b398979f60e01b815260040160405180910390fd5b606082611c6657611c6182611cb0565b611ca9565b8151158015611c7d57506001600160a01b0384163b155b15611ca657604051639996b31560e01b81526001600160a01b038516600482015260240161088d565b50805b9392505050565b805115611cc05780518082602001fd5b604051630a12f52160e11b815260040160405180910390fd5b80356001600160a01b0381168114611cf057600080fd5b919050565b8015158114610a0e57600080fd5b60008060008060008060c08789031215611d1c57600080fd5b863595506020870135945060408701359350611d3a60608801611cd9565b9250611d4860808801611cd9565b915060a0870135611d5881611cf5565b809150509295509295509295565b600060208284031215611d7857600080fd5b5035919050565b600060208284031215611d9157600080fd5b611ca982611cd9565b60008060408385031215611dad57600080fd5b611db683611cd9565b946020939093013593505050565b634e487b7160e01b600052604160045260246000fd5b60008060408385031215611ded57600080fd5b611df683611cd9565b9150602083013567ffffffffffffffff80821115611e1357600080fd5b818501915085601f830112611e2757600080fd5b813581811115611e3957611e39611dc4565b604051601f8201601f19908116603f01168101908382118183101715611e6157611e61611dc4565b81604052828152886020848701011115611e7a57600080fd5b8260208601602083013760006020848301015280955050505050509250929050565b600080600060608486031215611eb157600080fd5b611eba84611cd9565b9250611ec860208501611cd9565b9150604084013590509250925092565b60005b83811015611ef3578181015183820152602001611edb565b50506000910152565b6020815260008251806020840152611f1b816040850160208701611ed8565b601f01601f19169190910160400192915050565b600080600060608486031215611f4457600080fd5b611f4d84611cd9565b95602085013595506040909401359392505050565b60208082526033908201527f5661756c743a20496e76616c696420636c61696d20616d6f756e742e204d75736040820152720742062652067726561746572207468616e203606c1b606082015260800190565b602080825260409082018190527f5661756c743a20496e76616c696420636c61696d20616d6f756e742e204d7573908201527f742062652067726561746572207468616e206d696e436c61696d416d6f756e74606082015260800190565b6020808252603d908201527f5661756c743a20496e76616c696420636c61696d20616d6f756e742e204d757360408201527f74206265206c657373207468616e206d6178436c61696d416d6f756e74000000606082015260800190565b6020808252601b908201527f5661756c743a20496e73756666696369656e742062616c616e63650000000000604082015260600190565b634e487b7160e01b600052601160045260246000fd5b81810381811115611256576112566120a7565b6000602082840312156120e257600080fd5b5051919050565b6000602082840312156120fb57600080fd5b8151611ca981611cf5565b60208082526021908201527f5661756c743a20436f6e7472616374206973206e6f74207265676973746572656040820152601960fa1b606082015260800190565b634e487b7160e01b600052603260045260246000fd5b60006001820161216f5761216f6120a7565b5060010190565b60008261219357634e487b7160e01b600052601260045260246000fd5b500490565b8082028115828204841417611256576112566120a7565b80820180821115611256576112566120a7565b600082516121d4818460208701611ed8565b919091019291505056fe360894a13ba1a3210667c828492db98dca3e2076cc3735a920a3ca505d382bbccd5ed15c6e187e77e9aee88184c21f4f2182ab5827cb3b7e07fbedcd63f03300a2646970667358221220582541abbb1e44202b68ddaeab973645e300552f358831eb5d7f5f26d3e03df564736f6c63430008140033",
  "linkReferences": {},
  "deployedLinkReferences": {}
}